:0E0000000C943E000C9400000C9400000C9434
:10000E0000000C9400000C9400000C9400000C9462
:10001E0000000C9400000C946E000C9400000C94E4
:10002E0000000C9400000C9400000C9400000C9442
:10003E0000000C9400000C9400000C9400000C9432
:10004E0000000C9400001027E80364000A00010071
:10005E00001000011000010080C046726571656ECF
:10006E0063793D25640002007C0166000000F8946F
:10007E00EE27ECBBF1E0FBBFEBBFE5BFF8E1F1BD56
:10008E00E1BD8DE0A2E0BB27ED938A95E9F780E014
:10009E0094E0A0E6ED930197E9F7E4E7F0E08591AF
:1000AE009591009761F0A591B59105901590BF01BE
:1000BE00F00105900D920197E1F7FB01F0CFEFE50E
:1000CE00EDBFE4E0EEBFC0E6D1E00C948F006A9382
:1000DE007A93EA93FA93EFB7EA93E0916001F09185
:1000EE0061016091620170916301EF5FFF4F6F4F8D
:1000FE007F4FE0936001F093610160936201709312
:10010E006301E991EFBFF991E991799169911895A0
:10011E00E0E0E2BFECBFE3BFE1E0E9BFE0E1EA937C
:10012E000E94F502E6E0E3BF7894E8EEF3E0FA937E
:10013E00EA930E947303F894A0916001B09161015B
:10014E008091620190916301E0E0F1E060E070E087
:10015E000E948C03DF01CB01E2B7FF2766277727CA
:10016E000E948303E0936401F0936501609366013E
:10017E0070936701E8E6F1E0FA93EA93E8E6F0E0BF
:10018E00FA93EA93E0916401F09165016091660142
:10019E00709167010E94B40384E00E943E0228968B
:1001AE000E94B102E8E6F1E0FA93EA930E94DB02C4
:1001BE00E0E0E3BFE0E0E0936001E0936101E093F3
:1001CE006201E0936301E0E0E2BFACCFFFCF5F9B43
:1001DE00FECFECB108955D9BFECFE881ECB9219680
:1001EE000895A881B9810E94AC03309749F00E940E
:1001FE00AC033196ED93FC933197AA81A08304C092
:10020E00EA81EA930E94F2002396089526970E94AF
:10021E00B90300E0E889F9893196E88BF98B3197BB
:10022E00E4913E2FE03011F40C943A02E02FE030CE
:10023E0039F4353211F401E002C00E942C0312C1D0
:10024E00E130B1F4353221F40E942C0300E00AC1F2
:10025E0002E050E010E03D3211F411E003C13B32F8
:10026E0011F45BE2FFC0303211F450E2FBC002C069
:10027E00E23039F440E003E0303311F41068F2C09C
:10028E0004C0E33011F00C943902303310F03A33DD
:10029E0008F009C0A42FEAE0EA9FE02D4E2FE32FCD
:1002AE00E0534E0FDFC0E32FE33631F40E943303E9
:1002BE00EC910E943A03D5C0E33741F40E94330318
:1002CE000E9441030E945E030E2F0AC0E03761F4C4
:1002DE000E9433030E9441030E9468030E2F186090
:1002EE0012601F7720E038C0E43611F0E93611F4C1
:1002FE00146002C0E53731F4E4E5F0E0EE83FF83ED
:10030E0005E00DC0E83511F4186004C0E83711F0AF
:10031E000C943802EEE5F0E0EE83FF8304E012FF6A
:10032E0015C00E9433030E94AC03EA87FB87AA859F
:10033E00BB8510972CF40E948803EA87FB875DE249
:10034E00503011F00F5F01C01B7F06C00E943303B7
:10035E000E94AC03EA87FB8710FD11C0041778F4E6
:10036E0017FF08C012FF04C01B7F352F015001C0BC
:10037E0030E301C030E20E942C034150EFCF202F1A
:10038E0011FF1AC02030B9F013FF08C0EE81FF81B3
:10039E003196EE83FF833197E49105C0AE81BF8124
:1003AE00ED91AE83BF83EA930E944803403009F07B
:1003BE0041502150E7CF4CC030E3EE81FF813296A1
:1003CE00EE83FF8332970E94B003E887F987AA85F0
:1003DE00BB85AE17BF0720F03F5FAE1BBF0BC9F743
:1003EE00AA87BB87E9E3E31728F413FF02C0395F3E
:1003FE0001C0395D14FD1EC0E0E3E31730F0A8859F
:10040E00B985A130E0E0BE0711F410610AC04217B1
:10041E0010F010FF01C013C030E217FF0BC030E325
:10042E00106112FF07C01B7F5A930E944803403091
:10043E0009F041500E942C03403009F041502150E8
:10044E00A885B985E1E0F0E0EA17FB0708F4B4CF20
:10045E0010FF07C0403029F04150E0E20E943A03FD
:10046E00F9CF00E0D7CE0E94C00362960895FF92A6
:10047E00F82E22971A930A93DE010E947F030A2F09
:10048E001B2FDE0116960E947F030E94AC03EA83A7
:10049E00FB83DE0114960E947F030E94AC03FA9345
:1004AE00EA931A930A93FE013696FA93EA930E9400
:1004BE000D01AA81BB81E0E0EC931981088124969D
:1004CE00FF900895AAB3AF70AABBD99AD89811D04D
:1004DE00DA9A0FD0A9B3DA980CD0DA9A0AD0DA9851
:1004EE00A7FDF5CF0895A07FAB2BABBBDA9A01D059
:1004FE00DA98FFE0FA95F1F70895D998AAB3A76FA5
:10050E00AABBBBB3BF70A881EEDFA881A295EBDFBB
:10051E00D99A21960895DA9AECDFE9B3DA98E9DFF1
:10052E00E07F0895E6DFF7DFAE2FF5DFD998E2958D
:10053E00EA2B08950E946902E881F0E0E458FE4F2C
:10054E00E081A981EA0FEA930E94840249805880D3
:10055E00229608950E946902E2E00E944E03ECE0AA
:10056E000E944E03E1E0EA930E948402E0E05E2ED8
:10057E004E2E0895EF93FF93A8816894AA3021F030
:10058E00E8944394641438F45394E0E0EA935A9256
:10059E000E94A1022EF096DFD89AA881AA93ADDF11
:1005AE00FF91EF9121960895F981E881A191AA23F7
:1005BE0019F0AA93DFDFFACF22960895AA27BB2758
:1005CE001197F1F70895D998AAB3A76FAABBBBB339
:1005DE00BF70A88188DFD99A21960895DA98D898A5
:1005EE006880E881E058E0937E01E881E054E09372
:1005FE007F010E9453030E9453030E9453030E94E3
:10060E00E502E0E2EA930E94EA020E94E502E8E2D5
:10061E000E945903E4E00E945903E5E80E94590341
:10062E00AAB3AF70AABBD99A0E949902E53011F015
:10063E00E0E009C00E946902E6E0EA930E948402AB
:10064E000E94B102E1E0219608953A93ED85FE8570
:10065E00FA93EA930C94F800AE85BF851497AE8793
:10066E00BF8714960895EA93ED85FE85FA93EA9373
:10067E000C94F8000E94AC03EE83FF83FA93EA9386
:10068E000895ED85FE85FA93EA930C94F800EA93AB
:10069E000E9484020C9469020E94E502E0E3EA9350
:1006AE000C94EA02EA930E9484020C94E502A9914A
:1006BE00B991EE27FF276D91662311F03196FBCF8E
:1006CE000895AA27BB27E991F9910590002011F012
:1006DE001196FBCFFD010895E991F991309639F00D
:1006EE0080ED97E00197F1F7A8953197C9F7089536
:1006FE000024AF0DB01D0895EA0FFB1F681F791F70
:10070E000895E095F095319608957A9F702D6B9F20
:10071E00700DF89F700DE99F700D6A9F602D710D21
:10072E00FB9F600D711DE89F600D711D8827FA9F5C
:10073E00F02D610D781FEB9FF00D611D781FEA9F64
:10074E00E02DF10D681F781F0895ED91FC91119722
:10075E0008950590F491E02D08957A936A93FA9393
:10076E00EA9308955A934A933A932A931A930A93C3
:10077E0008955D814C813B812A81198108810895FC
:00000001FF
